{
  "_format": "hh-sol-artifact-1",
  "contractName": "TokenFarm",
  "sourceName": "contracts/TokenFarm.sol",
  "abi": [
    {
      "inputs": [
        {
          "internalType": "contract IERC20",
          "name": "_daiToken",
          "type": "address"
        },
        {
          "internalType": "contract StakingToken",
          "name": "_stknToken",
          "type": "address"
        }
      ],
      "stateMutability": "nonpayable",
      "type": "constructor"
    },
    {
      "anonymous": false,
      "inputs": [
        {
          "indexed": true,
          "internalType": "address",
          "name": "previousOwner",
          "type": "address"
        },
        {
          "indexed": true,
          "internalType": "address",
          "name": "newOwner",
          "type": "address"
        }
      ],
      "name": "OwnershipTransferred",
      "type": "event"
    },
    {
      "anonymous": false,
      "inputs": [
        {
          "indexed": true,
          "internalType": "address",
          "name": "from",
          "type": "address"
        },
        {
          "indexed": false,
          "internalType": "uint256",
          "name": "amount",
          "type": "uint256"
        }
      ],
      "name": "Stake",
      "type": "event"
    },
    {
      "anonymous": false,
      "inputs": [
        {
          "indexed": true,
          "internalType": "address",
          "name": "from",
          "type": "address"
        },
        {
          "indexed": false,
          "internalType": "uint256",
          "name": "amount",
          "type": "uint256"
        }
      ],
      "name": "Unstake",
      "type": "event"
    },
    {
      "anonymous": false,
      "inputs": [
        {
          "indexed": true,
          "internalType": "address",
          "name": "to",
          "type": "address"
        },
        {
          "indexed": false,
          "internalType": "uint256",
          "name": "amount",
          "type": "uint256"
        }
      ],
      "name": "YieldWithdraw",
      "type": "event"
    },
    {
      "inputs": [
        {
          "internalType": "address",
          "name": "user",
          "type": "address"
        }
      ],
      "name": "calculateYieldTime",
      "outputs": [
        {
          "internalType": "uint256",
          "name": "",
          "type": "uint256"
        }
      ],
      "stateMutability": "view",
      "type": "function"
    },
    {
      "inputs": [
        {
          "internalType": "address",
          "name": "user",
          "type": "address"
        }
      ],
      "name": "calculateYieldTotal",
      "outputs": [
        {
          "internalType": "uint256",
          "name": "",
          "type": "uint256"
        }
      ],
      "stateMutability": "view",
      "type": "function"
    },
    {
      "inputs": [],
      "name": "daiToken",
      "outputs": [
        {
          "internalType": "contract IERC20",
          "name": "",
          "type": "address"
        }
      ],
      "stateMutability": "view",
      "type": "function"
    },
    {
      "inputs": [
        {
          "internalType": "address",
          "name": "",
          "type": "address"
        }
      ],
      "name": "isStaking",
      "outputs": [
        {
          "internalType": "bool",
          "name": "",
          "type": "bool"
        }
      ],
      "stateMutability": "view",
      "type": "function"
    },
    {
      "inputs": [],
      "name": "name",
      "outputs": [
        {
          "internalType": "string",
          "name": "",
          "type": "string"
        }
      ],
      "stateMutability": "view",
      "type": "function"
    },
    {
      "inputs": [],
      "name": "owner",
      "outputs": [
        {
          "internalType": "address",
          "name": "",
          "type": "address"
        }
      ],
      "stateMutability": "view",
      "type": "function"
    },
    {
      "inputs": [],
      "name": "renounceOwnership",
      "outputs": [],
      "stateMutability": "nonpayable",
      "type": "function"
    },
    {
      "inputs": [
        {
          "internalType": "uint256",
          "name": "amount",
          "type": "uint256"
        }
      ],
      "name": "stake",
      "outputs": [],
      "stateMutability": "nonpayable",
      "type": "function"
    },
    {
      "inputs": [
        {
          "internalType": "address",
          "name": "",
          "type": "address"
        }
      ],
      "name": "stakingBalance",
      "outputs": [
        {
          "internalType": "uint256",
          "name": "",
          "type": "uint256"
        }
      ],
      "stateMutability": "view",
      "type": "function"
    },
    {
      "inputs": [
        {
          "internalType": "address",
          "name": "",
          "type": "address"
        }
      ],
      "name": "startTime",
      "outputs": [
        {
          "internalType": "uint256",
          "name": "",
          "type": "uint256"
        }
      ],
      "stateMutability": "view",
      "type": "function"
    },
    {
      "inputs": [],
      "name": "stknToken",
      "outputs": [
        {
          "internalType": "contract StakingToken",
          "name": "",
          "type": "address"
        }
      ],
      "stateMutability": "view",
      "type": "function"
    },
    {
      "inputs": [
        {
          "internalType": "address",
          "name": "",
          "type": "address"
        }
      ],
      "name": "tokenBalance",
      "outputs": [
        {
          "internalType": "uint256",
          "name": "",
          "type": "uint256"
        }
      ],
      "stateMutability": "view",
      "type": "function"
    },
    {
      "inputs": [
        {
          "internalType": "address",
          "name": "newOwner",
          "type": "address"
        }
      ],
      "name": "transferOwnership",
      "outputs": [],
      "stateMutability": "nonpayable",
      "type": "function"
    },
    {
      "inputs": [
        {
          "internalType": "uint256",
          "name": "amount",
          "type": "uint256"
        }
      ],
      "name": "unstake",
      "outputs": [],
      "stateMutability": "nonpayable",
      "type": "function"
    },
    {
      "inputs": [],
      "name": "withdrawYield",
      "outputs": [],
      "stateMutability": "nonpayable",
      "type": "function"
    }
  ],
  "bytecode": "0x60806040526040518060400160405280600981526020017f546f6b656e4661726d0000000000000000000000000000000000000000000000815250600590816200004a91906200046e565b503480156200005857600080fd5b5060405162001f5238038062001f5283398181016040528101906200007e919062000618565b6200009e620000926200012860201b60201c565b6200013060201b60201c565b81600660006101000a81548173ffffffffffffffffffffffffffffffffffffffff021916908373ffffffffffffffffffffffffffffffffffffffff16021790555080600760006101000a81548173ffffffffffffffffffffffffffffffffffffffff021916908373ffffffffffffffffffffffffffffffffffffffff16021790555050506200065f565b600033905090565b60008060009054906101000a900473ffffffffffffffffffffffffffffffffffffffff169050816000806101000a81548173ffffffffffffffffffffffffffffffffffffffff021916908373ffffffffffffffffffffffffffffffffffffffff1602179055508173ffffffffffffffffffffffffffffffffffffffff168173ffffffffffffffffffffffffffffffffffffffff167f8be0079c531659141344cd1fd0a4f28419497f9722a3daafe3b4186f6b6457e060405160405180910390a35050565b600081519050919050565b7f4e487b7100000000000000000000000000000000000000000000000000000000600052604160045260246000fd5b7f4e487b7100000000000000000000000000000000000000000000000000000000600052602260045260246000fd5b600060028204905060018216806200027657607f821691505b6020821081036200028c576200028b6200022e565b5b50919050565b60008190508160005260206000209050919050565b60006020601f8301049050919050565b600082821b905092915050565b600060088302620002f67fffffffffffffffffffffffffffffffffffffffffffffffffffffffffffffffff82620002b7565b620003028683620002b7565b95508019841693508086168417925050509392505050565b6000819050919050565b6000819050919050565b60006200034f6200034962000343846200031a565b62000324565b6200031a565b9050919050565b6000819050919050565b6200036b836200032e565b620003836200037a8262000356565b848454620002c4565b825550505050565b600090565b6200039a6200038b565b620003a781848462000360565b505050565b5b81811015620003cf57620003c360008262000390565b600181019050620003ad565b5050565b601f8211156200041e57620003e88162000292565b620003f384620002a7565b8101602085101562000403578190505b6200041b6200041285620002a7565b830182620003ac565b50505b505050565b600082821c905092915050565b6000620004436000198460080262000423565b1980831691505092915050565b60006200045e838362000430565b9150826002028217905092915050565b6200047982620001f4565b67ffffffffffffffff811115620004955762000494620001ff565b5b620004a182546200025d565b620004ae828285620003d3565b600060209050601f831160018114620004e65760008415620004d1578287015190505b620004dd858262000450565b8655506200054d565b601f198416620004f68662000292565b60005b828110156200052057848901518255600182019150602085019450602081019050620004f9565b868310156200054057848901516200053c601f89168262000430565b8355505b6001600288020188555050505b505050505050565b600080fd5b600073ffffffffffffffffffffffffffffffffffffffff82169050919050565b600062000587826200055a565b9050919050565b60006200059b826200057a565b9050919050565b620005ad816200058e565b8114620005b957600080fd5b50565b600081519050620005cd81620005a2565b92915050565b6000620005e0826200057a565b9050919050565b620005f281620005d3565b8114620005fe57600080fd5b50565b6000815190506200061281620005e7565b92915050565b6000806040838503121562000632576200063162000555565b5b60006200064285828601620005bc565b9250506020620006558582860162000601565b9150509250929050565b6118e3806200066f6000396000f3fe608060405234801561001057600080fd5b50600436106100f55760003560e01c80638da5cb5b11610097578063e507a8a411610066578063e507a8a414610286578063eedc966a14610290578063f2fde38b146102c0578063f41ca9cd146102dc576100f5565b80638da5cb5b146101fe578063980d61161461021c578063a694fc3a1461024c578063be22f54614610268576100f5565b806345bc78ab116100d357806345bc78ab146101645780636e1dc66e146101945780636f49712b146101c4578063715018a6146101f4576100f5565b806306872661146100fa57806306fdde031461012a5780632e17de7814610148575b600080fd5b610114600480360381019061010f9190611155565b6102fa565b604051610121919061119b565b60405180910390f35b6101326103a1565b60405161013f9190611246565b60405180910390f35b610162600480360381019061015d9190611294565b61042f565b005b61017e60048036038101906101799190611155565b6107aa565b60405161018b919061119b565b60405180910390f35b6101ae60048036038101906101a99190611155565b6107c2565b6040516101bb919061119b565b60405180910390f35b6101de60048036038101906101d99190611155565b6107da565b6040516101eb91906112dc565b60405180910390f35b6101fc6107fa565b005b61020661080e565b6040516102139190611306565b60405180910390f35b61023660048036038101906102319190611155565b610837565b604051610243919061119b565b60405180910390f35b61026660048036038101906102619190611294565b610896565b005b610270610c23565b60405161027d9190611380565b60405180910390f35b61028e610c49565b005b6102aa60048036038101906102a59190611155565b610ee7565b6040516102b7919061119b565b60405180910390f35b6102da60048036038101906102d59190611155565b610eff565b005b6102e4610f82565b6040516102f191906113bc565b60405180910390f35b600080670de0b6b3a764000061030f84610837565b6103199190611406565b90506000620151809050600081836103319190611477565b90506000670de0b6b3a764000082600160008973ffffffffffffffffffffffffffffffffffffffff1673ffffffffffffffffffffffffffffffffffffffff168152602001908152602001600020546103899190611406565b6103939190611477565b905080945050505050919050565b600580546103ae906114d7565b80601f01602080910402602001604051908101604052809291908181526020018280546103da906114d7565b80156104275780601f106103fc57610100808354040283529160200191610427565b820191906000526020600020905b81548152906001019060200180831161040a57829003601f168201915b505050505081565b6001801561047c575080600160003373ffffffffffffffffffffffffffffffffffffffff1673ffffffffffffffffffffffffffffffffffffffff1681526020019081526020016000205410155b600260003373ffffffffffffffffffffffffffffffffffffffff1673ffffffffffffffffffffffffffffffffffffffff16815260200190815260200160002060006101000a81548160ff0219169083151502179055610510576040517f08c379a000000000000000000000000000000000000000000000000000000000815260040161050790611554565b60405180910390fd5b600061051b336102fa565b905042600360003373ffffffffffffffffffffffffffffffffffffffff1673ffffffffffffffffffffffffffffffffffffffff1681526020019081526020016000208190555060008290506000925080600160003373ffffffffffffffffffffffffffffffffffffffff1673ffffffffffffffffffffffffffffffffffffffff16815260200190815260200160002060008282546105b99190611574565b92505081905550600660009054906101000a900473ffffffffffffffffffffffffffffffffffffffff1673ffffffffffffffffffffffffffffffffffffffff1663a9059cbb33836040518363ffffffff1660e01b815260040161061d9291906115a8565b6020604051808303816000875af115801561063c573d6000803e3d6000fd5b505050506040513d601f19601f8201168201806040525081019061066091906115fd565b5081600460003373ffffffffffffffffffffffffffffffffffffffff1673ffffffffffffffffffffffffffffffffffffffff16815260200190815260200160002060008282546106b0919061162a565b925050819055506000600160003373ffffffffffffffffffffffffffffffffffffffff1673ffffffffffffffffffffffffffffffffffffffff1681526020019081526020016000205403610757576000600260003373ffffffffffffffffffffffffffffffffffffffff1673ffffffffffffffffffffffffffffffffffffffff16815260200190815260200160002060006101000a81548160ff0219169083151502179055505b3373ffffffffffffffffffffffffffffffffffffffff167f85082129d87b2fe11527cb1b3b7a520aeb5aa6913f88a3d8757fe40d1db02fdd8260405161079d919061119b565b60405180910390a2505050565b60016020528060005260406000206000915090505481565b60036020528060005260406000206000915090505481565b60026020528060005260406000206000915054906101000a900460ff1681565b610802610fa8565b61080c6000611026565b565b60008060009054906101000a900473ffffffffffffffffffffffffffffffffffffffff16905090565b6000804290506000600360008573ffffffffffffffffffffffffffffffffffffffff1673ffffffffffffffffffffffffffffffffffffffff168152602001908152602001600020548261088a9190611574565b90508092505050919050565b600081118015610941575080600660009054906101000a900473ffffffffffffffffffffffffffffffffffffffff1673ffffffffffffffffffffffffffffffffffffffff166370a08231336040518263ffffffff1660e01b81526004016108fd9190611306565b602060405180830381865afa15801561091a573d6000803e3d6000fd5b505050506040513d601f19601f8201168201806040525081019061093e9190611673565b10155b610980576040517f08c379a0000000000000000000000000000000000000000000000000000000008152600401610977906116ec565b60405180910390fd5b60011515600260003373ffffffffffffffffffffffffffffffffffffffff1673ffffffffffffffffffffffffffffffffffffffff16815260200190815260200160002060009054906101000a900460ff16151503610a3d5760006109e3336102fa565b905080600460003373ffffffffffffffffffffffffffffffffffffffff1673ffffffffffffffffffffffffffffffffffffffff1681526020019081526020016000206000828254610a34919061162a565b92505081905550505b600660009054906101000a900473ffffffffffffffffffffffffffffffffffffffff1673ffffffffffffffffffffffffffffffffffffffff166323b872dd3330846040518463ffffffff1660e01b8152600401610a9c9392919061170c565b6020604051808303816000875af1158015610abb573d6000803e3d6000fd5b505050506040513d601f19601f82011682018060405250810190610adf91906115fd565b5080600160003373ffffffffffffffffffffffffffffffffffffffff1673ffffffffffffffffffffffffffffffffffffffff1681526020019081526020016000206000828254610b2f919061162a565b9250508190555042600360003373ffffffffffffffffffffffffffffffffffffffff1673ffffffffffffffffffffffffffffffffffffffff168152602001908152602001600020819055506001600260003373ffffffffffffffffffffffffffffffffffffffff1673ffffffffffffffffffffffffffffffffffffffff16815260200190815260200160002060006101000a81548160ff0219169083151502179055503373ffffffffffffffffffffffffffffffffffffffff167febedb8b3c678666e7f36970bc8f57abf6d8fa2e828c0da91ea5b75bf68ed101a82604051610c18919061119b565b60405180910390a250565b600660009054906101000a900473ffffffffffffffffffffffffffffffffffffffff1681565b6000610c54336102fa565b90506000811180610ca457506000600460003373ffffffffffffffffffffffffffffffffffffffff1673ffffffffffffffffffffffffffffffffffffffff16815260200190815260200160002054115b610ce3576040517f08c379a0000000000000000000000000000000000000000000000000000000008152600401610cda9061178f565b60405180910390fd5b6000600460003373ffffffffffffffffffffffffffffffffffffffff1673ffffffffffffffffffffffffffffffffffffffff1681526020019081526020016000205414610dc3576000600460003373ffffffffffffffffffffffffffffffffffffffff1673ffffffffffffffffffffffffffffffffffffffff1681526020019081526020016000205490506000600460003373ffffffffffffffffffffffffffffffffffffffff1673ffffffffffffffffffffffffffffffffffffffff168152602001908152602001600020819055508082610dbf919061162a565b9150505b42600360003373ffffffffffffffffffffffffffffffffffffffff1673ffffffffffffffffffffffffffffffffffffffff16815260200190815260200160002081905550600760009054906101000a900473ffffffffffffffffffffffffffffffffffffffff1673ffffffffffffffffffffffffffffffffffffffff166340c10f1933836040518363ffffffff1660e01b8152600401610e649291906115a8565b600060405180830381600087803b158015610e7e57600080fd5b505af1158015610e92573d6000803e3d6000fd5b505050503373ffffffffffffffffffffffffffffffffffffffff167f92044e3943309ee5950e21bc7421d02c1df75f0df33c0d97c1143687b49a4c5782604051610edc919061119b565b60405180910390a250565b60046020528060005260406000206000915090505481565b610f07610fa8565b600073ffffffffffffffffffffffffffffffffffffffff168173ffffffffffffffffffffffffffffffffffffffff1603610f76576040517f08c379a0000000000000000000000000000000000000000000000000000000008152600401610f6d90611821565b60405180910390fd5b610f7f81611026565b50565b600760009054906101000a900473ffffffffffffffffffffffffffffffffffffffff1681565b610fb06110ea565b73ffffffffffffffffffffffffffffffffffffffff16610fce61080e565b73ffffffffffffffffffffffffffffffffffffffff1614611024576040517f08c379a000000000000000000000000000000000000000000000000000000000815260040161101b9061188d565b60405180910390fd5b565b60008060009054906101000a900473ffffffffffffffffffffffffffffffffffffffff169050816000806101000a81548173ffffffffffffffffffffffffffffffffffffffff021916908373ffffffffffffffffffffffffffffffffffffffff1602179055508173ffffffffffffffffffffffffffffffffffffffff168173ffffffffffffffffffffffffffffffffffffffff167f8be0079c531659141344cd1fd0a4f28419497f9722a3daafe3b4186f6b6457e060405160405180910390a35050565b600033905090565b600080fd5b600073ffffffffffffffffffffffffffffffffffffffff82169050919050565b6000611122826110f7565b9050919050565b61113281611117565b811461113d57600080fd5b50565b60008135905061114f81611129565b92915050565b60006020828403121561116b5761116a6110f2565b5b600061117984828501611140565b91505092915050565b6000819050919050565b61119581611182565b82525050565b60006020820190506111b0600083018461118c565b92915050565b600081519050919050565b600082825260208201905092915050565b60005b838110156111f05780820151818401526020810190506111d5565b60008484015250505050565b6000601f19601f8301169050919050565b6000611218826111b6565b61122281856111c1565b93506112328185602086016111d2565b61123b816111fc565b840191505092915050565b60006020820190508181036000830152611260818461120d565b905092915050565b61127181611182565b811461127c57600080fd5b50565b60008135905061128e81611268565b92915050565b6000602082840312156112aa576112a96110f2565b5b60006112b88482850161127f565b91505092915050565b60008115159050919050565b6112d6816112c1565b82525050565b60006020820190506112f160008301846112cd565b92915050565b61130081611117565b82525050565b600060208201905061131b60008301846112f7565b92915050565b6000819050919050565b600061134661134161133c846110f7565b611321565b6110f7565b9050919050565b60006113588261132b565b9050919050565b600061136a8261134d565b9050919050565b61137a8161135f565b82525050565b60006020820190506113956000830184611371565b92915050565b60006113a68261134d565b9050919050565b6113b68161139b565b82525050565b60006020820190506113d160008301846113ad565b92915050565b7f4e487b7100000000000000000000000000000000000000000000000000000000600052601160045260246000fd5b600061141182611182565b915061141c83611182565b925082820261142a81611182565b91508282048414831517611441576114406113d7565b5b5092915050565b7f4e487b7100000000000000000000000000000000000000000000000000000000600052601260045260246000fd5b600061148282611182565b915061148d83611182565b92508261149d5761149c611448565b5b828204905092915050565b7f4e487b7100000000000000000000000000000000000000000000000000000000600052602260045260246000fd5b600060028204905060018216806114ef57607f821691505b602082108103611502576115016114a8565b5b50919050565b7f4e6f7468696e6720746f20756e7374616b650000000000000000000000000000600082015250565b600061153e6012836111c1565b915061154982611508565b602082019050919050565b6000602082019050818103600083015261156d81611531565b9050919050565b600061157f82611182565b915061158a83611182565b92508282039050818111156115a2576115a16113d7565b5b92915050565b60006040820190506115bd60008301856112f7565b6115ca602083018461118c565b9392505050565b6115da816112c1565b81146115e557600080fd5b50565b6000815190506115f7816115d1565b92915050565b600060208284031215611613576116126110f2565b5b6000611621848285016115e8565b91505092915050565b600061163582611182565b915061164083611182565b9250828201905080821115611658576116576113d7565b5b92915050565b60008151905061166d81611268565b92915050565b600060208284031215611689576116886110f2565b5b60006116978482850161165e565b91505092915050565b7f596f752063616e6e6f74207374616b65207a65726f20746f6b656e7300000000600082015250565b60006116d6601c836111c1565b91506116e1826116a0565b602082019050919050565b60006020820190508181036000830152611705816116c9565b9050919050565b600060608201905061172160008301866112f7565b61172e60208301856112f7565b61173b604083018461118c565b949350505050565b7f4e6f7468696e6720746f20776974686472617700000000000000000000000000600082015250565b60006117796013836111c1565b915061178482611743565b602082019050919050565b600060208201905081810360008301526117a88161176c565b9050919050565b7f4f776e61626c653a206e6577206f776e657220697320746865207a65726f206160008201527f6464726573730000000000000000000000000000000000000000000000000000602082015250565b600061180b6026836111c1565b9150611816826117af565b604082019050919050565b6000602082019050818103600083015261183a816117fe565b9050919050565b7f4f776e61626c653a2063616c6c6572206973206e6f7420746865206f776e6572600082015250565b60006118776020836111c1565b915061188282611841565b602082019050919050565b600060208201905081810360008301526118a68161186a565b905091905056fea264697066735822122051bfde4c929e13df11b06dcadcd983a2676d62f507064dca2e3d84846254c92e64736f6c63430008130033",
  "linkReferences": {},
  "deployedLinkReferences": {}
}